{
  "_format": "hh-sol-artifact-1",
  "contractName": "AppContract",
  "sourceName": "src/contracts/AppContract.sol",
  "abi": [
    {
      "anonymous": false,
      "inputs": [
        {
          "indexed": true,
          "internalType": "address",
          "name": "previousOwner",
          "type": "address"
        },
        {
          "indexed": true,
          "internalType": "address",
          "name": "newOwner",
          "type": "address"
        }
      ],
      "name": "OwnershipTransferred",
      "type": "event"
    },
    {
      "inputs": [
        {
          "internalType": "address",
          "name": "",
          "type": "address"
        },
        {
          "internalType": "uint256",
          "name": "",
          "type": "uint256"
        }
      ],
      "name": "addressToBetArray",
      "outputs": [
        {
          "internalType": "uint256",
          "name": "",
          "type": "uint256"
        }
      ],
      "stateMutability": "view",
      "type": "function"
    },
    {
      "inputs": [
        {
          "internalType": "address",
          "name": "_betPlacer",
          "type": "address"
        }
      ],
      "name": "getAllBets",
      "outputs": [
        {
          "components": [
            {
              "internalType": "string",
              "name": "odds",
              "type": "string"
            },
            {
              "internalType": "string",
              "name": "amountBet",
              "type": "string"
            },
            {
              "internalType": "string",
              "name": "gameDetails",
              "type": "string"
            }
          ],
          "internalType": "struct AppContract.BetConstruct[]",
          "name": "allBets",
          "type": "tuple[]"
        }
      ],
      "stateMutability": "view",
      "type": "function"
    },
    {
      "inputs": [],
      "name": "getBalance",
      "outputs": [
        {
          "internalType": "uint256",
          "name": "",
          "type": "uint256"
        }
      ],
      "stateMutability": "view",
      "type": "function"
    },
    {
      "inputs": [
        {
          "internalType": "uint256",
          "name": "_betIndex",
          "type": "uint256"
        }
      ],
      "name": "getSpecificBet",
      "outputs": [
        {
          "internalType": "string",
          "name": "odds",
          "type": "string"
        },
        {
          "internalType": "string",
          "name": "amountBet",
          "type": "string"
        },
        {
          "internalType": "string",
          "name": "gameDetails",
          "type": "string"
        }
      ],
      "stateMutability": "view",
      "type": "function"
    },
    {
      "inputs": [
        {
          "internalType": "uint256",
          "name": "",
          "type": "uint256"
        }
      ],
      "name": "indexToSpecificBet",
      "outputs": [
        {
          "internalType": "string",
          "name": "odds",
          "type": "string"
        },
        {
          "internalType": "string",
          "name": "amountBet",
          "type": "string"
        },
        {
          "internalType": "string",
          "name": "gameDetails",
          "type": "string"
        }
      ],
      "stateMutability": "view",
      "type": "function"
    },
    {
      "inputs": [],
      "name": "isOwner",
      "outputs": [
        {
          "internalType": "bool",
          "name": "",
          "type": "bool"
        }
      ],
      "stateMutability": "view",
      "type": "function"
    },
    {
      "inputs": [],
      "name": "owner",
      "outputs": [
        {
          "internalType": "address",
          "name": "",
          "type": "address"
        }
      ],
      "stateMutability": "view",
      "type": "function"
    },
    {
      "inputs": [
        {
          "internalType": "address",
          "name": "_betPlacer",
          "type": "address"
        },
        {
          "internalType": "string",
          "name": "_odds",
          "type": "string"
        },
        {
          "internalType": "string",
          "name": "_amountBet",
          "type": "string"
        },
        {
          "internalType": "string",
          "name": "_gameDetails",
          "type": "string"
        }
      ],
      "name": "placeBet",
      "outputs": [],
      "stateMutability": "payable",
      "type": "function"
    },
    {
      "inputs": [],
      "name": "renounceOwnership",
      "outputs": [],
      "stateMutability": "nonpayable",
      "type": "function"
    },
    {
      "inputs": [],
      "name": "totalBets",
      "outputs": [
        {
          "internalType": "uint16",
          "name": "",
          "type": "uint16"
        }
      ],
      "stateMutability": "view",
      "type": "function"
    },
    {
      "inputs": [
        {
          "internalType": "address",
          "name": "newOwner",
          "type": "address"
        }
      ],
      "name": "transferOwnership",
      "outputs": [],
      "stateMutability": "nonpayable",
      "type": "function"
    },
    {
      "inputs": [],
      "name": "withdraw",
      "outputs": [],
      "stateMutability": "nonpayable",
      "type": "function"
    }
  ],
  "bytecode": "0x608060405260008060146101000a81548161ffff021916908361ffff160217905550336000806101000a81548173ffffffffffffffffffffffffffffffffffffffff021916908373ffffffffffffffffffffffffffffffffffffffff1602179055506000809054906101000a900473ffffffffffffffffffffffffffffffffffffffff1673ffffffffffffffffffffffffffffffffffffffff16600073ffffffffffffffffffffffffffffffffffffffff167f8be0079c531659141344cd1fd0a4f28419497f9722a3daafe3b4186f6b6457e060405160405180910390a36115dd806100ec6000396000f3fe6080604052600436106100a75760003560e01c8063715018a611610064578063715018a6146101c55780637fa43b4f146101dc5780638da5cb5b146102195780638f32d59b14610244578063befa1e2f1461026f578063f2fde38b1461029a576100a7565b806301d93e27146100ac57806312065fe0146100eb57806324a1b140146101165780633ccfd60b1461015557806344e2e21b1461016c578063608f7eaf14610188575b600080fd5b3480156100b857600080fd5b506100d360048036036100ce91908101906110e9565b6102c3565b6040516100e293929190611338565b60405180910390f35b3480156100f757600080fd5b506101006104f3565b60405161010d91906113eb565b60405180910390f35b34801561012257600080fd5b5061013d600480360361013891908101906110e9565b61050c565b60405161014c93929190611384565b60405180910390f35b34801561016157600080fd5b5061016a6106fe565b005b61018660048036036101819190810190611002565b610758565b005b34801561019457600080fd5b506101af60048036036101aa9190810190610fd9565b6108b0565b6040516101bc91906112fb565b60405180910390f35b3480156101d157600080fd5b506101da610bcd565b005b3480156101e857600080fd5b5061020360048036036101fe91908101906110ad565b610c9d565b60405161021091906113eb565b60405180910390f35b34801561022557600080fd5b5061022e610ccb565b60405161023b91906112e0565b60405180910390f35b34801561025057600080fd5b50610259610cf4565b604051610266919061131d565b60405180910390f35b34801561027b57600080fd5b50610284610d4b565b60405161029191906113d0565b60405180910390f35b3480156102a657600080fd5b506102c160048036036102bc9190810190610fd9565b610d5f565b005b60608060606102d0610e74565b60016000868152602001908152602001600020604051806060016040529081600082018054600181600116156101000203166002900480601f0160208091040260200160405190810160405280929190818152602001828054600181600116156101000203166002900480156103875780601f1061035c57610100808354040283529160200191610387565b820191906000526020600020905b81548152906001019060200180831161036a57829003601f168201915b50505050508152602001600182018054600181600116156101000203166002900480601f0160208091040260200160405190810160405280929190818152602001828054600181600116156101000203166002900480156104295780601f106103fe57610100808354040283529160200191610429565b820191906000526020600020905b81548152906001019060200180831161040c57829003601f168201915b50505050508152602001600282018054600181600116156101000203166002900480601f0160208091040260200160405190810160405280929190818152602001828054600181600116156101000203166002900480156104cb5780601f106104a0576101008083540402835291602001916104cb565b820191906000526020600020905b8154815290600101906020018083116104ae57829003601f168201915b5050505050815250509050806000015193508060200151925080604001519150509193909250565b60006104fd610cf4565b61050657600080fd5b47905090565b6001602052806000526040600020600091509050806000018054600181600116156101000203166002900480601f0160208091040260200160405190810160405280929190818152602001828054600181600116156101000203166002900480156105b85780601f1061058d576101008083540402835291602001916105b8565b820191906000526020600020905b81548152906001019060200180831161059b57829003601f168201915b505050505090806001018054600181600116156101000203166002900480601f0160208091040260200160405190810160405280929190818152602001828054600181600116156101000203166002900480156106565780601f1061062b57610100808354040283529160200191610656565b820191906000526020600020905b81548152906001019060200180831161063957829003601f168201915b505050505090806002018054600181600116156101000203166002900480601f0160208091040260200160405190810160405280929190818152602001828054600181600116156101000203166002900480156106f45780601f106106c9576101008083540402835291602001916106f4565b820191906000526020600020905b8154815290600101906020018083116106d757829003601f168201915b5050505050905083565b610706610cf4565b61070f57600080fd5b3373ffffffffffffffffffffffffffffffffffffffff166108fc479081150290604051600060405180830381858888f19350505050158015610755573d6000803e3d6000fd5b50565b610760610e74565b604051806060016040528085815260200184815260200183815250905080600160008060149054906101000a900461ffff1661ffff16815260200190815260200160002060008201518160000190805190602001906107c0929190610e95565b5060208201518160010190805190602001906107dd929190610e95565b5060408201518160020190805190602001906107fa929190610e95565b50905050600260008673ffffffffffffffffffffffffffffffffffffffff1673ffffffffffffffffffffffffffffffffffffffff168152602001908152602001600020600060149054906101000a900461ffff16908060018154018082558091505060019003906000526020600020016000909161ffff169091909150556001600060148282829054906101000a900461ffff160192506101000a81548161ffff021916908361ffff1602179055505050505050565b60606000600260008473ffffffffffffffffffffffffffffffffffffffff1673ffffffffffffffffffffffffffffffffffffffff16815260200190815260200160002080549050905060608160405190808252806020026020018201604052801561093557816020015b610922610f15565b81526020019060019003908161091a5790505b50905060008090505b82811015610bc25760016000600260008873ffffffffffffffffffffffffffffffffffffffff1673ffffffffffffffffffffffffffffffffffffffff168152602001908152602001600020838154811061099457fe5b90600052602060002001548152602001908152602001600020604051806060016040529081600082018054600181600116156101000203166002900480601f016020809104026020016040519081016040528092919081815260200182805460018160011615610100020316600290048015610a515780601f10610a2657610100808354040283529160200191610a51565b820191906000526020600020905b815481529060010190602001808311610a3457829003601f168201915b50505050508152602001600182018054600181600116156101000203166002900480601f016020809104026020016040519081016040528092919081815260200182805460018160011615610100020316600290048015610af35780601f10610ac857610100808354040283529160200191610af3565b820191906000526020600020905b815481529060010190602001808311610ad657829003601f168201915b50505050508152602001600282018054600181600116156101000203166002900480601f016020809104026020016040519081016040528092919081815260200182805460018160011615610100020316600290048015610b955780601f10610b6a57610100808354040283529160200191610b95565b820191906000526020600020905b815481529060010190602001808311610b7857829003601f168201915b505050505081525050828281518110610baa57fe5b6020026020010181905250808060010191505061093e565b508092505050919050565b610bd5610cf4565b610bde57600080fd5b600073ffffffffffffffffffffffffffffffffffffffff166000809054906101000a900473ffffffffffffffffffffffffffffffffffffffff1673ffffffffffffffffffffffffffffffffffffffff167f8be0079c531659141344cd1fd0a4f28419497f9722a3daafe3b4186f6b6457e060405160405180910390a360008060006101000a81548173ffffffffffffffffffffffffffffffffffffffff021916908373ffffffffffffffffffffffffffffffffffffffff160217905550565b60026020528160005260406000208181548110610cb657fe5b90600052602060002001600091509150505481565b60008060009054906101000a900473ffffffffffffffffffffffffffffffffffffffff16905090565b60008060009054906101000a900473ffffffffffffffffffffffffffffffffffffffff1673ffffffffffffffffffffffffffffffffffffffff163373ffffffffffffffffffffffffffffffffffffffff1614905090565b600060149054906101000a900461ffff1681565b610d67610cf4565b610d7057600080fd5b610d7981610d7c565b50565b600073ffffffffffffffffffffffffffffffffffffffff168173ffffffffffffffffffffffffffffffffffffffff161415610db657600080fd5b8073ffffffffffffffffffffffffffffffffffffffff166000809054906101000a900473ffffffffffffffffffffffffffffffffffffffff1673ffffffffffffffffffffffffffffffffffffffff167f8be0079c531659141344cd1fd0a4f28419497f9722a3daafe3b4186f6b6457e060405160405180910390a3806000806101000a81548173ffffffffffffffffffffffffffffffffffffffff021916908373ffffffffffffffffffffffffffffffffffffffff16021790555050565b60405180606001604052806060815260200160608152602001606081525090565b828054600181600116156101000203166002900490600052602060002090601f016020900481019282601f10610ed657805160ff1916838001178555610f04565b82800160010185558215610f04579182015b82811115610f03578251825591602001919060010190610ee8565b5b509050610f119190610f36565b5090565b60405180606001604052806060815260200160608152602001606081525090565b610f5891905b80821115610f54576000816000905550600101610f3c565b5090565b90565b600081359050610f6a81611579565b92915050565b600082601f830112610f8157600080fd5b8135610f94610f8f82611433565b611406565b91508082526020830160208301858383011115610fb057600080fd5b610fbb838284611526565b50505092915050565b600081359050610fd381611590565b92915050565b600060208284031215610feb57600080fd5b6000610ff984828501610f5b565b91505092915050565b6000806000806080858703121561101857600080fd5b600061102687828801610f5b565b945050602085013567ffffffffffffffff81111561104357600080fd5b61104f87828801610f70565b935050604085013567ffffffffffffffff81111561106c57600080fd5b61107887828801610f70565b925050606085013567ffffffffffffffff81111561109557600080fd5b6110a187828801610f70565b91505092959194509250565b600080604083850312156110c057600080fd5b60006110ce85828601610f5b565b92505060206110df85828601610fc4565b9150509250929050565b6000602082840312156110fb57600080fd5b600061110984828501610fc4565b91505092915050565b600061111e8383611264565b905092915050565b61112f816114d0565b82525050565b60006111408261146f565b61114a818561149d565b93508360208202850161115c8561145f565b8060005b8581101561119857848403895281516111798582611112565b945061118483611490565b925060208a01995050600181019050611160565b50829750879550505050505092915050565b6111b3816114e2565b82525050565b60006111c482611485565b6111ce81856114bf565b93506111de818560208601611535565b6111e781611568565b840191505092915050565b60006111fd8261147a565b61120781856114ae565b9350611217818560208601611535565b61122081611568565b840191505092915050565b60006112368261147a565b61124081856114bf565b9350611250818560208601611535565b61125981611568565b840191505092915050565b6000606083016000830151848203600086015261128182826111f2565b9150506020830151848203602086015261129b82826111f2565b915050604083015184820360408601526112b582826111f2565b9150508091505092915050565b6112cb816114ee565b82525050565b6112da8161151c565b82525050565b60006020820190506112f56000830184611126565b92915050565b600060208201905081810360008301526113158184611135565b905092915050565b600060208201905061133260008301846111aa565b92915050565b6000606082019050818103600083015261135281866111b9565b9050818103602083015261136681856111b9565b9050818103604083015261137a81846111b9565b9050949350505050565b6000606082019050818103600083015261139e818661122b565b905081810360208301526113b2818561122b565b905081810360408301526113c6818461122b565b9050949350505050565b60006020820190506113e560008301846112c2565b92915050565b600060208201905061140060008301846112d1565b92915050565b6000604051905081810181811067ffffffffffffffff8211171561142957600080fd5b8060405250919050565b600067ffffffffffffffff82111561144a57600080fd5b601f19601f8301169050602081019050919050565b6000819050602082019050919050565b600081519050919050565b600081519050919050565b600081519050919050565b6000602082019050919050565b600082825260208201905092915050565b600082825260208201905092915050565b600082825260208201905092915050565b60006114db826114fc565b9050919050565b60008115159050919050565b600061ffff82169050919050565b600073ffffffffffffffffffffffffffffffffffffffff82169050919050565b6000819050919050565b82818337600083830152505050565b60005b83811015611553578082015181840152602081019050611538565b83811115611562576000848401525b50505050565b6000601f19601f8301169050919050565b611582816114d0565b811461158d57600080fd5b50565b6115998161151c565b81146115a457600080fd5b5056fea2646970667358221220348549484847a227affdc65effb3ca439b28b0e3cb6f2feb929eb244761d61ac64736f6c63430006000033",
  "linkReferences": {},
  "deployedLinkReferences": {}
}